:100000000C9480070C94B1070C94B1070C94B107C1
:100010000C94B1070C94B1070C94B1070C94B10780
:100020000C94B1070C94B1070C94B1070C94B10770
:100030000C94B1070C94B1070C94B1070C94B10760
:100040000C94B1070C94B1070C94B1070C94B10750
:100050000C94B1070C94B1070C94B1070C9499124D
:100060000C94B1070C94B1070C94B1070C94B10730
:100070000C94B1070C94B1070C94B1070C94B10720
:100080000C94B1070C94B1070C94B1070C94B10710
:100090000C94B1070C94B1070C94B1070C94B10700
:1000A0000C94B1070C94B1070C94B1070C94B107F0
:1000B0000C94B1070C94B1070C94B1070C94B107E0
:1000C0000C94B1070C94B1070C94B1070C94B107D0
:1000D0000C94B1070C94B1070C94B1070C94B107C0
:1000E0000C94B107303132333435363738392E007D
:1000F00030313233343536373839005355505F4F4D
:10010000525F455155414C00494E465F4F525F4545
:100110005155414C00414E414C4F470044494749DD
:1001200054414C00687474703A2F2F0030313233D0
:100130003435363738392E006E6F746966795572EA
:100140006C20697320746F6F206C6F6E6700687429
:100150007470206F6E6C7920666F72206E6F746998
:10016000667955726C00696E76616C69642069709D
:1001700020696E206E6F7469667955726C006E61CD
:100180006D6520697320746F6F206C6F6E67006EF1
:100190006F742076616C6964206970006E6F7420E2
:1001A00076616C696420706F72740076616C75653D
:1001B000206F766572666C6F770050555420002F63
:1001C000626F617264002F6C696E65002048545440
:1001D000502F312E300D0A436F6E74656E742D549E
:1001E0007970653A206170706C69636174696F6ED3
:1001F0002F6A736F6E0D0A00436F6E6E65637469CC
:100200006F6E3A20436C6F73650D0A436F6E7465B1
:100210006E742D4C656E6774683A202020200D0A9C
:100220000D0A7B220074797065223A2200227D003B
:10023000424F4F540054455354006964223A002CF5
:10024000226F6C6456616C7565223A002C227661CF
:100250006C7565223A002C22736F75726365223AC1
:100260002200222C226E6F74696679223A7B226EFC
:100270006F74696679436F6E646974696F6E223A50
:100280002200222C226E6F7469667956616C756546
:10029000223A007D7D00256400436F6E74656E74A4
:1002A0002D4C656E6774683A20000D0A0D0A000037
:1002B00000090A02080B0C0D0706030401000000E8
:1002C000000000000000000000000000000000002E
:1002D000000000000000000000000011100F0000EE
:1002E000000000000000000000000000000000000E
:1002F000000000000001021020200808102040101B
:1003000020408002010201080402010102040810D9
:1003100020408080402010080402018004020180F7
:100320004020100804020108040201010204081020
:1003300020408001020408102040800505050507C3
:100340000508080808020202020A0A080804040450
:10035000040101010101010101030303030303037C
:1003600003040707070C0C0C0C0C0C0C0C0202020B
:100370000206060606060606060B0B0B0B0B0B0BFE
:100380000B000020002300260029002C002F003243
:100390000000010000030106010901000022002500
:1003A0000028002B002E003100340002010000055F
:1003B0000108010B0100002100240027002A002D64
:1003C000003000330001010000040107010A0103AD
:1003D000010000000000007F43C50AE309A30A7280
:1003E0006564206C656400000000000000000000EF
:1003F00000000000000000000000000000000000FD
:1004000000000000000000000000000000000000EC
:1004100000000000000000000000000000000000DC
:1004200000000000000000000000000000000000CC
:1004300000000000000000000000000000000000BC
:1004400000000000000005010000000000007F43E4
:10045000C50AE309A30A6C6564203320636F6C6FDF
:1004600072207265640000000000000000000000BF
:10047000000000000000000000000000000000007C
:10048000000000000000000000000000000000006C
:10049000000000000000000000000000000000005C
:1004A000000000000000000000000000000000004C
:1004B0000000000000000000000000000006010035
:1004C00000000000007F43C50AE309A30A6C6564CD
:1004D000203320636F6C6F7220677265656E000059
:1004E000000000000000000000000000000000000C
:1004F00000000000000000000000000000000000FC
:1005000000000000000000000000000000000000EB
:1005100000000000000000000000000000000000DB
:1005200000000000000000000000000000000000CB
:10053000000000000902000000000000803FC50A22
:10054000E309A30A6C6564203320636F6C6F72202B
:10055000626C7565000000000000000000000000F3
:10056000000000000000000000000000000000008B
:10057000000000000000000000000000000000007B
:10058000000000000000000000000000000000006B
:10059000000000000000000000000000000000005B
:1005A0000000000000000000000000FF000000004C
:1005B000000000000000000000000000000000003B
:1005C000000000000000000000000000000000002B
:1005D000000000000000000000000000000000001B
:1005E000000000000000000000000000000000000B
:1005F00000000000000000000000000000000000FB
:1006000000000000000000000000000000000000EA
:1006100000000000000000000000000000000000DA
:100620000000360100AB0ADD099D0A746D70333697
:100630002074656D70657261747572652073656E86
:10064000736F720000000000000000000000000056
:10065000000000000000000000000000000000009A
:10066000000000000000000000000000000000008A
:10067000000000000000000000000000000000007A
:10068000000000000000000000000000000000006A
:100690000000370101AB0ADD099D0A73616D706CC2
:1006A000652070686F746F7265736973746F722000
:1006B0006F6E2070756C6C7570000000000000009B
:1006C000000000000000000000000000000000002A
:1006D000000000000000000000000000000000001A
:1006E000000000000000000000000000000000000A
:1006F00000000000000000000000000000000000FA
:100700000000380201AB0ACE09462F726F74617285
:1007100079207075736820627574746F6E207769C4
:10072000746820696E7465726E616C2070756C6C93
:1007300075700000000000000000000000000000D4
:1007400000000000000000000000000000000000A9
:100750000000000000000000000000000000000099
:100760000000000000000000000000000000000089
:100770006D09390201AB0ACE09462F7265642070FB
:1007800075736820627574746F6E20776974682061
:10079000696E7465726E616C2070756C6C7570003A
:1007A0000000000000000000000000000000000049
:1007B0000000000000000000000000000000000039
:1007C0000000000000000000000000000000000029
:1007D0000000000000000000000000000000000019
:1007E0006E096402008E2EDD098F2E726F746172A5
:1007F0007920656E636F6465720000000000000080
:1008000000000000000000000000000000000000E8
:1008100000000000000000000000000000000000D8
:1008200000000000000000000000000000000000C8
:1008300000000000000000000000000000000000B8
:1008400000000000000000000000000000000000A8
:100850006F09FF0000000000000000000000000021
:100860000000000000000000000000000000000088
:100870000000000000000000000000000000000078
:100880000000000000000000000000000000000068
:100890000000000000000000000000000000000058
:1008A0000000000000000000000000000000000048
:1008B0000000000000000000000000000000000038
:1008C00000005455581000F277696E646F77206904
:1008D0006E2066726F6E74206F6620746865206883
:1008E0006F757365206E6F7420706F7765726564C5
:1008F0002066726F6D20504F4520627574206F6EB8
:100900006C792062792061207472616E73666F0069
:1009100000000000000000000000000000000000D7
:1009200000000000000000000000000000544F54D0
:100930004F34320000000000000000000000000002
:1009400000000000000000000000000000000000A7
:100950000000000000000000000000000000000097
:100960000000000000000000000000000002000085
:10097000016E616D6520697320746F6F206C6F6EFE
:1009800067005355505F4F525F455155414C0049E8
:100990004E465F4F525F455155414C00546F6F209A
:1009A0006D616E79206E6F74696679004E6F206E8E
:1009B0006F74696679206F6E206F7574707574003E
:1009C000696E76616C6964206E6F74696679206304
:1009D0006F6E646974696F6E006E6F7469667920FA
:1009E00076616C7565206F766572666C6F7700480E
:1009F0005454502F312E3020000D0A00436F6E7476
:100A0000656E742D547970653A206170706C6963FD
:100A10006174696F6E2F6A736F6E000D0A0D0A00A4
:100A20007B226572726F72436C617373223A226E1D
:100A300065742E6177697265642E616A736C2E63CA
:100A40006F72652E6C616E672E6578636570746970
:100A50006F6E2E00222C226D657373616765223ADA
:100A60002200227D00650B6A0B710BBB27EE0A6A20
:100A70000B710B0328EE0A6A0B0000FB28EE0A6AD2
:100A80000B790B5F28650B6A0B790B2B28EE0A8418
:100A90000B0000782AEE0A790B00006D2B650B79AC
:100AA0000B0000F32B650B870B0000232C650B8FCD
:100AB0000B0000392C000000000000000034303032
:100AC000204261642052657175657374004E6F74C5
:100AD000466F756E64457863657074696F6E004C1F
:100AE000696E65206E6F7420666F756E6400474591
:100AF000542000343034204E6F7420466F756E647D
:100B0000004E6F207265736F7572636520666F7239
:100B100020746869732075726C00446F75626C652F
:100B200020656E646C206E6F7420666F756E640055
:100B3000343133205265717565737420456E746964
:100B4000747920546F6F204C617267650055706432
:100B5000617465457863657074696F6E00546F6F7A
:100B6000206269670050555420002F6C696E652F14
:100B7000002F76616C756520002F73657474696E43
:100B8000677320002F20002F726573657420002F7B
:100B90006E6F7469667920003430302042616420C1
:100BA000526571756573740055706461746545783C
:100BB00063657074696F6E0043616E6E6F7420734D
:100BC00065742076616C7565206F6E20494E5055B6
:100BD00054206C696E6500323030204F4B000000AD
:100BE0000000940C00007B226E616D65223A2200A9
:100BF0002C226E6F746966696573223A5B007B22F2
:100C00006E6F74696679436F6E646974696F6E2282
:100C10003A2200222C226E6F7469667956616C75D7
:100C200065223A007B22646972656374696F6E2283
:100C30003A2200222C226465736372697074696FB2
:100C40006E223A2200494E505554004F555450558B
:100C50005400222C226964223A002C227479706597
:100C6000223A2200222C2276616C75654D696E2233
:100C70003A002C2276616C75654D6178223A002C21
:100C80002270756C6C7570223A002C2276616C753E
:100C900065223A00AC0CC42400000000B10C000036
:100CA000BA0CFC2400000000000000006E616D65BD
:100CB000006E6F74696669657300D20C1C250000B4
:100CC0000000E20C612500000000000000000000B0
:100CD00000006E6F74696679436F6E646974696F42
:100CE0006E006E6F7469667956616C75650032309E
:100CF00030204F4B007B22736F66747761726522E0
:100D00003A22526573744D6375222C2022766572E7
:100D100073696F6E223A2200302E3100222C226835
:100D200061726477617265223A220041726475696A
:100D30006E6F204475656D696C616E6F7665202FEE
:100D4000204E75656C656374726F6E6963732065A0
:100D50006E6332386A36302045746865726E657429
:100D600020536869656C642056312E3100222C2294
:100D70006465736372697074696F6E223A2200222F
:100D80002C22667265654D656D6F7279223A002C72
:100D9000226C696E65496473223A5B002C226D6196
:100DA00063223A2200227D007B226E6F746966798D
:100DB00055726C223A2200222C226970223A2200BB
:100DC000222C226E616D65223A2200222C22706F45
:100DD0007274223A0000000000FD0D000034303033
:100DE00020426164205265717565737400557064AA
:100DF000617465457863657074696F6E00250E498E
:100E000009000000002A0EEE0800000000340E6306
:100E10000900000000370EA30900000000000000D8
:100E200000000000006E616D65006E6F7469667988
:100E300055726C00697000706F727400556E657841
:100E40007065637465642061727261790043616EDC
:100E50006E6F742066696E642061727261792065BC
:100E60006E640043616E6E6F742066696E64206B01
:100E700065792073746172740043616E6E6F7420C3
:100E800066696E64206B65792D76616C756520737B
:100E90006570617261746F720043616E6E6F742071
:100EA00066696E64206F626A65637420656E6400B3
:100EB000494E46494E4954594E414E00002041008A
:100EC00000C84200401C4620BCBE4CCA1B0E5AAE95
:100ED000C59D74CDCCCC3D0AD7233C17B7D138770C
:100EE000CC2B329595E6241FB14F0A008411E115F1
:100EF0006F178419221B2D1B181D2120EA2EFC318F
:100F000011241FBECFEFD1E2DEBFCDBF00E00CBF8A
:100F100012E0A0E0B2E0E2E5F5E700E00BBF02C0BE
:100F200007900D92AE38B107D9F718E0AEE8B2E0FD
:100F300001C01D92A130B107E1F71EE0C0E0DFE083
:100F400000E006C022970109FE010BBF0E94A33AF0
:100F5000CC3ED10780E00807A9F70E94B3070C94A4
:100F600062330C9400000E944F130E948A0886E9A5
:100F700092E00E94DE0880E992E00E94D8080E9478
:100F8000E40890938F0280938E0266E972E080E914
:100F900092E00E94E50F0E94C80A80E00E94400C87
:100FA0000E946C100E94390BFBCF7F928F929F9210
:100FB000AF92BF92CF92DF92EF92FF920F931F9367
:100FC000CF93DF93CDB7DEB7C556D1090FB6F894EE
:100FD000DEBF0FBECDBF45E650E06CE471E0CE0150
:100FE00001960E94D53764EE70E0CE0108960E940B
:100FF00085338C0147EC52E0BC01CE0108960E947B
:10100000F50DC8010796E1E0F0E0EC0FFD1FE80FD9
:10101000F91F20812A33C1F4085F1F4FEE24E394A7
:10102000F12CEC0EFD1EE00EF11EC7010E944433B0
:101030009093C6028093C50260EF70E0C7010E94E2
:101040008533800F911F06C020E530E03093C60243
:101050002093C5029E012F5F3F4F280F391FF901D2
:1010600001900020E9F701EA12E0E21BF30BAF0167
:10107000B901C8010E94AE33912C35E0732E49E2CC
:10108000842E20C0709EB001719E700D11246C0DD5
:101090007D1D67587F4FE0919F02F091A002EA0DFD
:1010A000FB1D8081918145E050E08E0D9F1D0E94C7
:1010B000D5370F5F1F4F85E0E80EF11C0430110596
:1010C00009F7939480919E02981678F4892D90E008
:1010D0005C01AA0CBB1CE12CF12C00E010E0889E06
:1010E0006001899ED00C1124CDCFCB59DF4F0FB6B4
:1010F000F894DEBF0FBECDBFDF91CF911F910F914E
:10110000FF90EF90DF90CF90BF90AF909F908F9027
:101110007F900895FF920F931F93CF93DF93F090EA
:101120009E0280E701C0F92E8F9DF0011124EE5D33
:10113000F94FE4919F2D9F5FEF3FA9F7F0929E0238
:1011400080919D0297E701C0822F989FF0011124A2
:10115000E153FC4FE491282F2F5FEF3FA9F78093D5
:101160009D028F2D90E0880F991F0E940732809377
:101170009F029093A002C0E0D0E011C0CE01880F82
:10118000991F00919F021091A002080F191F84E17E
:1011900090E00E940732F801808391832196CF1559
:1011A00068F3DF91CF911F910F91FF900C94D507B9
:1011B00046E050E062EC78E00C94653344E050E0A7
:1011C00061E371E00C94D53785E391E00C94F3373B
:1011D00087E391E008958CE491E00895CF92DF9247
:1011E000EF92FF920F931F93CF93DF9300D01F9244
:1011F000CDB7DEB77C018B0165367105A0F547E000
:1012000050E064E271E00E947733892B79F5670141
:1012100087E0C80ED11C6CE271E0C6010E948533E4
:10122000AE014F5F5F4FBC01C6010E94F50D8111F9
:1012300020C0F701E00FF11F319780818F3211F448
:1012400001501109A8016CE471E0C7010E94F9374F
:1012500060E0C801845B9E4F0E9403380E94D5075E
:1012600020E030E008C028E331E005C02EE431E0A2
:1012700002C026E631E0C9010F900F900F900F9049
:10128000DF91CF911F910F91FF90EF90DF90CF9062
:101290000895CF93DF93EB016531710570F4AB01D5
:1012A00067E371E00E94F93760E0CE01895C9E4FF0
:1012B0000E94033820E030E002C02EE731E0C9018F
:1012C000DF91CF910895CF93DF93CDB7DEB7289705
:1012D0000FB6F894DEBF0FBECDBFAE014B5F5F4FC0
:1012E0000E94F50D811120C0CE0101960E94DE08FA
:1012F00099818D8198130CC09A818E81981308C0B2
:101300009B818F81981304C09C818885981779F000
:1013100044E050E061E371E0CE0105960E94F937A8
:1013200081E080939C0203C02FE831E002C020E0FE
:1013300030E0C90128960FB6F894DEBF0FBECDBFCE
:10134000DF91CF910895CF93DF9340E008C0FC0177
:10135000E20FF31F208120532A30B8F44F5F242F6F
:1013600030E02617370798F30E944433EC010E94BF
:10137000E408C817D90761F0BE0185E391E00E9437
:10138000193881E080939C0203C02CE931E002C04F
:1013900020E030E0C901DF91CF910895892B19F445
:1013A00090E88FE302C090E080E050E040E09C01D4
:1013B000652F742F832F922F0895BC0180E090E059
:1013C0000E94B63408950E948534CB0108954F924F
:1013D0005F927F928F929F92AF92BF92CF92DF9255
:1013E000EF92FF920F931F93CF93DF93782E6A01B2
:1013F0007B01482E512C87E7789E90011124F9013A
:10140000E053FC4FB490F901E153FC4FA490F90173
:10141000E352FC4F8590949025523C4FF901859101
:101420009491C82FD92FCB01BA01FE0119958C01D7
:10143000F1E0BF1205C060E070E08FE793E404C004
:1014400060E070E080E89FE3FE0119958017910746
:1014500068F160E070E0CB01FE011995BC018827BE
:1014600077FD8095982F0E94B8349B01AC01C7018D
:10147000B6010E94813487FD19C0B701A601872DEE
:101480000E94862487E7849D9001859D300D11245C
:101490002C5B3B4FF901859194919C01A8016B2D28
:1014A0008A2DF401199520E030E002C02BEA31E0EA
:1014B000C901DF91CF911F910F91FF90EF90DF90C5
:1014C000CF90BF90AF909F908F907F905F904F9004
:1014D00008950F931F93CF93DF9390919E028917E6
:1014E00028F590E7899F90011124F901ED5DF94FEE
:1014F0006491F901EE5DF94F8491F901E75DF94FCF
:1015000005911491A901495D594FFA01C591D491F2
:101510002057394FF901A591B491AD01F801199502
:10152000FE01DF91CF911F910F911994891BDF91DB
:10153000CF911F910F910C948E24613011F40C9473
:1015400099110C947314613019F4BA010C94C211FE
:10155000642F0C943C141F93CF93DF93182FEB014F
:1015600060E00E941D14FE013296C491CC2321F04C
:1015700061E0812F0E943C146AE070E080E090E01E
:10158000DF91CF911F910C941F1361E00C941D14F7
:10159000DF92EF92FF920F931F93CF93DF9380918F
:1015A0009E0290E0880F991F0E9407328093CB0221
:1015B0009093CC02F12C30E7D32E27C0FE01EB5DD7
:1015C000F94F259134918E2DF9011995FE01E75DB2
:1015D000F94FA591B491FE01ED5DF94F6491980129
:1015E000220F331F0091CB021091CC02020F131F68
:1015F000C057D94FFE0125913491A9018E2DFD01CF
:101600001995F80191838083F3940F2D10E0D09EFB
:10161000E001D19ED00D1124BE016E5D794FFB011A
:10162000E490FFEFEF12CACFC0E0D7E710C0F90196
:10163000E752FC4F25913491F90119958C2F0E94A6
:101640008E24AB01BC018C2F0E94E709CF5FDC9F89
:1016500090011124B90161537C4FFB0184918F3FAC
:1016600031F7DF91CF911F910F91FF90EF90DF90B5
:1016700008952F923F924F925F926F927F928F9236
:101680009F92AF92BF92CF92DF92EF92FF920F9311
:101690001F93CF93DF93CDB7DEB72E970FB6F89495
:1016A000DEBF0FBECDBF1E86A7C0F801E75DF94FB4
:1016B000E590F490F801ED5DF94F6491C901880F50
:1016C000991F9C838B83A091CB02B091CC02A80F71
:1016D000B91FED91FC91FE83ED83F801E057F94FBE
:1016E00025913491A9018D2DF70119951C011D86B5
:1016F000095D194FF8018591949198878F83AD2DDD
:10170000BB27A7FDB095BA87A987ED81FE814F0160
:10171000A12CB12C2101612C712C6D858E850E942C
:1017200097249A838983DC018C91882309F451C022
:101730008230E1F41196CD90DD90ED90FC901497FD
:10174000C501B4010E94B634A70196010E94683514
:1017500018160CF03EC0C301B2010E94B634A701B6
:1017600096010E9481341816ECF433C0813089F55B
:10177000E981FA81C180D280E380F480C501B4019F
:101780000E94B634A70196010E94813487FF21C0D0
:10179000C301B2010E94B634A70196010E946835C8
:1017A00087FD17C0EF80F884C101F70119958B01FF
:1017B0009C018D819E812B873C87F7011995AB0198
:1017C000BC01E980FA802B853C8589859A850E9439
:1017D000500CFD85FF5FFD87F43009F09ECFE0914E
:1017E000CB02F091CC028B819C81E80FF91F3182F2
:1017F00020829E859F5F9E87AE852A2F30E0B0E7CE
:10180000B29F8001B39F100D1124F801EE5DF94FD6
:10181000D490EFEFDE1249CF2E960FB6F894DEBFCC
:101820000FBECDBFDF91CF911F910F91FF90EF9031
:10183000DF90CF90BF90AF909F908F907F906F90F0
:101840005F904F903F902F900895E0919A02F09111
:101850009B02309741F490939B0280939A020895E3
:101860004F5FF90101C040E0208931892115310520
:10187000B9F74B3010F00C94A232918B808B089505
:10188000CF93C82F82E190E00E940732FC0181E0F3
:101890008083C183118A108ACF01CF910C94250CCB
:1018A000DF92EF92FF920F931F93CF93DF9300D0BD
:1018B00000D0CDB7DEB7D82E82E190E02D833E83F5
:1018C00049835A836B837C830E940732FC01108218
:1018D000D2822D813E8107831087218732874981FB
:1018E0005A816B817C814383548365837683D701DE
:1018F0008C91838711964D915D916D917C91149798
:101900004487558766877787118A108ACF01269684
:101910000FB6F894DEBF0FBECDBFDF91CF911F9100
:101920000F91FF90EF90DF900C94250CCF92DF92F7
:10193000EF92FF920F931F93CF93DF931F921F920B
:10194000CDB7DEB79A8389836AEB71E0CE01019649
:101950000E94552C41EA52E0BC0189819A810E9483
:10196000A30FBC01E0919A02F0919B022081898132
:101970009A81222319F04FEB51E002C046EC51E06E
:101980000E94B30F4CEC51E0BC0189819A810E9406
:10199000B30F48EF51E0BC0189819A810E94B30FD7
:1019A0008C01E0919A02F0919B02208189819A81B9
:1019B0002223C9F045E252E0B8010E94B30FE09142
:1019C0009A02F0919B022181211103C040E352E071
:1019D00002C045E352E0BC0189819A810E94B30FA5
:1019E0004DE252E0AEC04AE352E0B8010E94B30FAC
:1019F000E0919A02F0919B02428150E0BC01898102
:101A00009A810E94EB0E4FE352E0BC0189819A81DA
:101A10000E94B30FE0919A02F0919B0223813481DE
:101A200045815681BC0189819A810E94180F4CE43E
:101A300052E0BC0189819A810E94B30FE0919A0221
:101A4000F0919B022781308541855285BC018981B7
:101A50009A810E94180F46E552E0BC0189819A8163
:101A60000E94B30F4091960250E0BC0189819A8197
:101A70000E94EB0E4EE2BC0189819A810E94E30E26
:101A80004091970250E0BC0189819A810E94EB0E3F
:101A90004EE2BC0189819A810E94E30E4091980236
:101AA00050E0BC0189819A810E94EB0E4EE2BC019C
:101AB00089819A810E94E30E4091990250E0BC0115
:101AC00089819A810E94EB0E4AE3BC0189819A8147
:101AD0000E94E30E40918E0250918F02BC018981D9
:101AE0009A810E94EB0E42E652E0BC0189819A8104
:101AF0000E94B30FE0919A02F0919B02E385F0E01F
:101B0000EE0FFF1FEC5FFD4F40815181BC018981C9
:101B10009A810E94B30F42E852E0BC0189819A8108
:101B20000E94B30FE0919A02F0919B0224853585C3
:101B300046855785BC0189819A810E94180F43E927
:101B400052E0BC0189819A810E94B30F7C01680137
:101B500089E0C81AD10869817A816C0D7D1DC701A1
:101B6000801B910B4AE050E002960E94C233E9814B
:101B7000FA81EC0DFD1D01900020E9F7319780E21C
:101B8000808389819A81800F911FFC0136972DE017
:101B9000208380919A0290919B02FC010089118917
:101BA0000E94A23210939B0200939A02C7010F90E9
:101BB0000F90DF91CF911F910F91FF90EF90DF90E9
:101BC000CF9008959C01FC0106C0992787FD909550
:101BD0008617970741F0AF01421B530B819181118A
:101BE000F4CF4FEF5FEFCA010895CF92DF92EF92EB
:101BF000FF920F931F93CF93DF93EC017A0140E0A4
:101C000030E020E013C0FE01E80FF91F8081982F1B
:101C100090539A3038F08E3211F081E053C03F5F1C
:101C200020E003C02F5F2430C4F74F5F842F90E083
:101C30008617970740F3333081F7CE010E94443373
:101C4000D82EF70180836EE270E0CE010E94E20D93
:101C50008C010F5F1F4F0C0F1D1FC8010E944433E2
:101C6000C82EF70181836EE270E0C8010E94E20D88
:101C7000EC012196C00FD11FCE010E944433182FD2
:101C8000F70182836EE270E0CE010E94E20D0196C0
:101C90008C0F9D1F0E944433982FF7018383FFEF21
:101CA000DF1609F4BACFCF1609F4B7CF1F3F09F4F6
:101CB000B4CF8F3F09F4B1CFDD2009F4AECF81E07E
:101CC000911180E0DF91CF911F910F91FF90EF90E4
:101CD000DF90CF9008957F928F929F92AF92BF92A4
:101CE000CF92DF92EF92FF920F931F93CF93DF93E8
:101CF000D82FC92F6B01CB010E946E335C01009776
:101D0000C9F00D2F1C2FE801F6018490912C7E0163
:101D1000E01AF10ACE017990272D332727FD30955F
:101D20002815390571F4A501B6010E947733892B76
:101D300041F40AC0E12CF12C07C0EE24EA94FE2CF9
:101D400003C07110E4CFF9CFC701DF91CF911F918C
:101D50000F91FF90EF90DF90CF90BF90AF909F904A
:101D60008F907F9008951F93CF93DF93860F971FD7
:101D7000DA01EA0130E018C0AE01E991F0E014E0C8
:101D8000F595E7951A95E1F7EB5DFD4F1081FC01A4
:101D90001083FA0140814F70E42FF0E0EB5DFD4FBE
:101DA0004081FC0141830296AE014A1B5B0B421746
:101DB000530714F3220F331F260F371FC901DF917A
:101DC000CF911F910895860F971FFC0140836F5F8D
:101DD0007F4FCB0108950F931F93CF93DF938C0117
:101DE000EB015F934F9326E932E03F932F932DEC65
:101DF00032E03F932F930E94EB33EDECF2E0D801F9
:101E0000AC0FBD1F0F900F900F900F900F900F9081
:101E1000CE1BDF0B01C08D939E012E0F3F1F8191C2
:101E20008111F9CFC901DF91CF911F910F910895D1
:101E3000AF92BF92CF92DF92EF92FF920F931F93D8
:101E4000CF93DF938C01EB0169017A0120E030E050
:101E5000A901C701B6010E94813487FF0AC0F801B9
:101E6000EC0FFD1F8DE280832196F7FAF094F7F8CE
:101E7000F0942AE037ED43EA5BE3C701B6010E9424
:101E80001D345B016C017B2D9D2D0E948A347B01EA
:101E90000E94B6349B01AC016A2D7B2D8C2D9D2DAB
:101EA0000E941C345B016C01A701BE01C8010E94A5
:101EB000EB0EF801E80FF91F2EE220837C012FEFD3
:101EC000E21AF20A20E030E040E251E46A2D7B2D74
:101ED0008C2D9D2D0E946C35D62FC72F6C01AE0125
:101EE000652F742F9D2D0E9485345B01AB01B701D6
:101EF000C8010E94EB0E7C01B501882777FD809513
:101F0000982F0E94B8349B01AC01DE016B2F7A2F11
:101F10008C2D9D2D0E941C3420E030E040E251E4E5
:101F20000E946C350E948534AB01B701C801DF9176
:101F3000CF911F910F91FF90EF90DF90CF90BF90C6
:101F4000AF900C94EB0EDC01A60FB71FFA01641BD7
:101F5000750B01C08D939F01260F371F8191811151
:101F6000F9CFC90108959B01461B570B06C0DC0140
:101F7000A20FB31FEC932F5F3F4FFA01E20FF31F45
:101F8000E491E111F4CFC9010895EF92FF920F930C
:101F90001F93CF93DF937C018A01EB01061B170B84
:101FA00005C0F701EC0FFD1F80832196C8018C0F3F
:101FB0009D1F0E94E5378111F4CFCE01DF91CF91B3
:101FC0001F910F91FF90EF9008950F931F93CF9360
:101FD000DF93CDB7DEB72C970FB6F894DEBF0FBEF8
:101FE000CDBF8C01CE0107960E94C6158AE392E010
:101FF0009A83898349855A856B857C854B835C836D
:102000006D837E83AE014F5F5F4FB80184EF96E032
:102010000E94211787ED96E00E94A51968EE73E0F3
:1020200080E090E00E941F132C960FB6F894DEBF5C
:102030000FBECDBFDF91CF911F910F910895AF9249
:10204000BF92CF92DF92EF92FF920F931F93CF93A5
:10205000DF937C0148EE53E06EEE72E00E94D617EB
:10206000EC018EEEC82E82E0D82ECC0EDD1EF601DD
:10207000108269E972E08EEE92E00E9494338C0146
:102080000097F1F040960E9444335C016AEA72E0E6
:10209000C8010E949433DC011496FD0101900020D8
:1020A000E9F73197EA1BFB0BA501EA15FB0540F4A4
:1020B0004E1B5F0BB601C7010E94D617C80FD91F70
:1020C000CE01DF91CF911F910F91FF90EF90DF90A4
:1020D000CF90BF90AF900895EF92FF920F931F9310
:1020E000CF93DF93CDB7DEB7A0970FB6F894DEBFDE
:1020F0000FBECDBF8DED92E00E94F517892B49F1FF
:102100008091DF029091E0029C838B838091E102B9
:102110009091E202A091E302B091E4028D839E834C
:10212000AF83B8878091E5029091E602A091E70223
:10213000B091E80289879A87AB87BC8780E492E0F8
:102140009A8389838091E9028D87CE0101960E944E
:102150001F108DED92E00E94B018811104C08DED2A
:1021600092E00E94D41880919A0290919B02892B50
:10217000B9F18DED92E00E94A318882309F494C070
:102180002FC00E94E3120091EA021091EB0220910D
:10219000EC023091ED02601B710B820B930B6136E8
:1021A0007A4E8105910508F08CC01AC08EEE92E03F
:1021B0000E94960CAC016EEE72E08DED92E00E94F2
:1021C00000180EC00E94E3126093EA027093EB02C3
:1021D0008093EC029093ED028DED92E00E94D41872
:1021E0008E01025F1F4F67ED76E0C8010E94AE1AB4
:1021F000C8010E94AA17811148C080919C028823BF
:1022000009F475C04BC0C7010E94F517892B09F46A
:102210003FC0288939893C832B834A895B896C8933
:102220007D894D835E836F8378874E895F89688D52
:10223000798D49875A876B877C871A8309838A8DB2
:102240008D87CE0101960E941F10AC01009799F076
:10225000FC01E251FD4F108260E070E08EEE92E0F2
:102260000E940027FC01E251FD4F10826EEE72E0E9
:10227000C7010E94F11461E070E080E090E00E94EC
:102280001F13C7010E94D41803C0780100E412E0B4
:10229000C7010E94B0188111B6CFAFCFE091DD0623
:1022A000F091DE06199523C08091EA029091EB022D
:1022B000A091EC02B091ED02892B8A2B8B2B09F0B7
:1022C00060CF0091C5021091C60267EC72E0CE01AA
:1022D0004B960E94C615A801BE01655E7F4F8DED2D
:1022E00092E00E941719892B09F060CF6BCFA0965E
:1022F0000FB6F894DEBF0FBECDBFDF91CF911F9117
:102300000F91FF90EF9008950F9300E020E040E0E0
:1023100060E08FED96E00E94BA150E94E408BC01CF
:1023200087ED96E00E94E9198DED92E00F910C94F3
:102330007F18863308F0865320917B00982F987081
:10234000277F922B90937B00877020910E0240E4B0
:10235000249F90011124822B80937C0080917A002D
:10236000806480937A0080917A0086FDFCCF209172
:10237000780030917900932F80E0AC01422B9A01D4
:10238000C90108951F93CF93DF93182FEB0161E0EC
:102390000E941D14209711F460E004C0CF3FD105C6
:1023A00039F461E0812FDF91CF911F910C943C149F
:1023B000E12FF0E0E155FD4FE491E93009F460C010
:1023C00098F4E430C9F138F4E23039F158F5E130ED
:1023D00009F0A6C01DC0E73009F440C008F046C0AF
:1023E000E63009F09DC032C0ED3009F471C030F420
:1023F000EB3009F459C008F061C04CC0E03109F479
:102400007BC0E13109F482C0EF3009F089C06AC0B5
:1024100084B5806884BDC7BD88C084B5806284BD32
:10242000C8BD83C080918000806880938000D09375
:102430008900C093880079C0809180008062809379
:102440008000D0938B00C0938A006FC08091B00051
:1024500080688093B000C093B30067C08091B000E3
:1024600080628093B000C093B4005FC08091900000
:10247000806880939000D0939900C093980055C0D5
:1024800080919000806280939000D0939B00C093D5
:102490009A004BC080919000886080939000D09308
:1024A0009D00C0939C0041C08091A00080688093F3
:1024B000A000D093A900C093A80037C08091A000CD
:1024C00080628093A000D093AB00C093AA002DC07F
:1024D0008091A00088608093A000D093AD00C0934D
:1024E000AC0023C080912001806880932001D093AC
:1024F0002901C093280119C0809120018062809336
:102500002001D0932B01C0932A010FC0809120019C
:10251000886080932001D0932D01C0932C0105C0C9
:10252000C038D1050CF03DCF37CFDF91CF911F914F
:1025300008951F920F920FB60F9211242F933F937D
:102540008F939F93AF93BF938091E5069091E6069A
:10255000A091E706B091E8063091ED06232F2D5F9C
:102560002D3720F40196A11DB11D05C0232F2A5738
:102570000296A11DB11D2093ED068093E506909370
:10258000E606A093E706B093E8068091E9069091ED
:10259000EA06A091EB06B091EC060196A11DB11DD3
:1025A0008093E9069093EA06A093EB06B093EC06BD
:1025B000BF91AF919F918F913F912F910F900FBE3F
:1025C0000F901F9018950F931F938FB7F894009159
:1025D000E5061091E6062091E7063091E8068FBFE8
:1025E000B801C9011F910F9108950F931F939FB7D1
:1025F000F8940091E9061091EA062091EB063091DB
:10260000EC0686B5A89B06C08F3F21F00F5F1F4FD9
:102610002F4F3F4F9FBF322F212F102F0027080F22
:10262000111D211D311D42E0000F111F221F331FFC
:102630004A95D1F7B801C9011F910F910895CF9222
:10264000DF92EF92FF92CF93DF936B017C010E94A8
:10265000F512EB010EC00E94F5126C1B7D0B683E5B
:10266000734038F081E0C81AD108E108F108C85178
:10267000DC4FC114D104E104F10469F7DF91CF917B
:10268000FF90EF90DF90CF900895019739F0880F79
:10269000991F880F991F02970197F1F70895789471
:1026A00084B5826084BD84B5816084BD85B5826057
:1026B00085BD85B5816085BDEEE6F0E080818160F5
:1026C0008083E1E8F0E010828081826080838081F5
:1026D00081608083E0E8F0E0808181608083E1EBCD
:1026E000F0E0808184608083E0EBF0E080818160B5
:1026F0008083E1E9F0E08081826080838081816075
:102700008083E0E9F0E0808181608083E1EAF0E0AD
:10271000808182608083808181608083E0EAF0E054
:10272000808181608083E1E2F1E08081826080834A
:10273000808181608083E0E2F1E08081816080833C
:10274000EAE7F0E08081846080838081826080831A
:102750008081816080838081806880831092C10045
:102760000895893009F443C088F4843029F138F49D
:10277000823059F1E8F4813009F05EC023C087301F
:1027800061F188F5863009F057C023C08D3009F417
:1027900040C020F48B30A9F1C0F52DC0803109F480
:1027A00042C0813109F443C08F3009F045C037C0C1
:1027B000809180008F7703C0809180008F7D80930F
:1027C0008000089584B58F7702C084B58F7D84BD65
:1027D00008958091B0008F7703C08091B0008F7D05
:1027E0008093B0000895809190008F7707C080910A
:1027F00090008F7D03C080919000877F8093900030
:1028000008958091A0008F7707C08091A0008F7DF0
:1028100003C08091A000877F8093A00008958091DD
:1028200020018F7707C0809120018F7D03C08091A8
:102830002001877F80932001089590E0FC01EB50F8
:10284000FD4F2491FC01E55CFC4FE491EE2399F0EF
:10285000F0E0EE0FFF1FEB54FC4F85919491DC01EB
:102860009FB7F8948C91611103C02095822301C019
:10287000822B8C939FBF08950F931F93CF93DF9369
:102880001F92CDB7DEB7282F30E0F901E155FD4F9B
:102890008491F901EB50FD4F1491F901E55CFC4F77
:1028A00004910023D1F0882321F069830E94B113A1
:1028B0006981E02FF0E0EE0FFF1FE556FC4F859198
:1028C0009491DC019FB7F8948C91611103C010952D
:1028D000812301C0812B8C939FBF0F90DF91CF91FB
:1028E0001F910F910895CF93DF93282F30E0F901C6
:1028F000E155FD4F8491F901EB50FD4FD491F90161
:10290000E55CFC4FC491CC2389F081110E94B11386
:10291000EC2FF0E0EE0FFF1FEF57FC4F85919491E5
:10292000DC018C918D2321E030E011F420E030E0D7
:10293000C901DF91CF910895CF92DF92EF92FF927C
:102940000F931F93CF93DF936C01EB017A01E60E97
:10295000F71E00E010E00BC06991D601ED91FC91EB
:102960000190F081E02DC6011995080F191FCE15B1
:10297000DF0591F7C801DF91CF911F910F91FF9073
:10298000EF90DF90CF900895DB010D900020E9F7E4
:10299000AD0141505109461B570BDC01ED91FC91F3
:1029A0000280F381E02D1994DC01ED91FC910190FE
:1029B000F081E02D19940F931F93CF93DF93EC01D7
:1029C0006DE00E94D4148C016AE0CE010E94D41400
:1029D0009C01200F311FC901DF91CF911F910F91F1
:1029E00008950F931F93CF93DF93EC010E94C414BB
:1029F0008C01CE010E94DB149801280F391FC901F8
:102A0000DF91CF911F910F9108955F926F927F9206
:102A10008F929F92AF92BF92CF92DF92EF92FF92EE
:102A20000F931F93CF93DF93CDB7DEB7A1970FB668
:102A3000F894DEBF0FBECDBF3C016A017B01522E70
:102A400019A281E0821710F08AE0582E8E010F5DE6
:102A50001F4F852C912CA12CB12CC701B601A501CB
:102A600094010E94753A8C2D529E801911240150B8
:102A700011098A3014F4805D01C0895CF8018083FB
:102A800069017A01C114D104E104F10431F7B801FC
:102A9000C3010E94C414A1960FB6F894DEBF0FBE06
:102AA000CDBFDF91CF911F910F91FF90EF90DF90FD
:102AB000CF90BF90AF909F908F907F906F905F90DE
:102AC00008952115310541F4DC01ED91FC9101904F
:102AD000F081E02D642F19940C9405159A01462F6E
:102AE00050E060E070E00C946115AF92BF92CF921D
:102AF000DF92EF92FF920F931F93CF93DF936C01BE
:102B00007B01C0E0D0E000E010E0F601EC0FFD1F1B
:102B10004AE050E06281C7010E946E155C016EE2DE
:102B2000C7010E94D4148A0D9B1D080F191F2196FE
:102B3000C330D10551F74AE050E0F6016581C70185
:102B40000E946E15080F191FC801DF91CF911F91C8
:102B50000F91FF90EF90DF90CF90BF90AF900895CE
:102B60002AE332E0FC013183208312821382148233
:102B7000158208950F93FC018AE392E0918380838C
:102B800062834383248305830F9108952AE332E00F
:102B9000FC0131832083FB0140815181628173817B
:102BA000FC0142835383648375830895FC01DB0138
:102BB0004D915D916D917C914283538364837583C4
:102BC00008958AE392E09093EF068093EE061092C8
:102BD000F0061092F1061092F2061092F306089594
:102BE00044E050E0BC0181E090E00C949E2244E07F
:102BF00050E0BC0185E090E00C949E2244E050E05F
:102C0000BC018FE090E00C949E228F929F92AF9235
:102C1000BF92CF92DF92EF92FF920F931F93CF93C9
:102C2000DF931F921F92CDB7DEB74C016A015901A5
:102C30008AE297E069837A830E94602246E050E04E
:102C400069817A8189E090E00E949E22C601029605
:102C50000E94FE15C80102960E94F015C701029657
:102C60000E94F715F5014281538164817581F40159
:102C700042835383648375830F900F90DF91CF91CC
:102C80001F910F91FF90EF90DF90CF90BF90AF908A
:102C90009F908F9008952F923F924F925F926F92E4
:102CA0007F928F929F92AF92BF92CF92DF92EF92DC
:102CB000FF920F931F93CF93DF93CDB7DEB76E973D
:102CC0000FB6F894DEBF0FBECDBF5C014B013A01D9
:102CD0002901180100E02FEF4FEF6FEFCE01499669
:102CE0000E94BA158AE392E09A838983CB8CDC8CAC
:102CF000ED8CFE8CCB82DC82ED82FE8298878F8306
:102D0000F101028113812481358109871A872B877C
:102D10003C879E878D87F201028113812481358152
:102D20000F87188B298B3A8B9C8B8B8BF3014281FD
:102D30005381648175814D8B5E8B6F8B788FEE2410
:102D4000E394F12CEC0EFD1E8E01095F1F4F9E01D6
:102D5000235F3F4FAE014D5E5F4FB401C5010E943E
:102D600005166E960FB6F894DEBF0FBECDBFDF918D
:102D7000CF911F910F91FF90EF90DF90CF90BF9078
:102D8000AF909F908F907F906F905F904F903F900B
:102D90002F900895CF92DF92EF92FF920F931F939F
:102DA000CF93DF93CDB7DEB768970FB6F894DEBF49
:102DB0000FBECDBFDB017901FA01428153816481ED
:102DC00075814D8B5E8B6F8B788F2AE3C22E22E04C
:102DD000D22EDA82C98221E0288F0D891E892F899F
:102DE000388D0B831C832D833E83D886CF82F701D9
:102DF000028113812481358109871A872B873C87BB
:102E0000DE86CD864F87588B698B7A8B8E010F5F5C
:102E10001F4F9E01295F3F4FAE01435F5F4FBD01D2
:102E20000E944B1668960FB6F894DEBF0FBECDBF5A
:102E3000DF91CF911F910F91FF90EF90DF90CF9096
:102E400008950F931F93CF93DF93CDB7DEB76297AB
:102E50000FB6F894DEBF0FBECDBFDB01FA01428191
:102E60005381648175814F87588B698B7A8BEAE334
:102E7000F2E0FA83E98321E02A8B0F8518892989FA
:102E80003A890B831C832D833E83F887EF83498720
:102E90005A876B877C879E012F5F3F4FAE01495F4A
:102EA0005F4FBD010E94CA1662960FB6F894DEBF4E
:102EB0000FBECDBFDF91CF911F910F9108952AE3EF
:102EC00032E0FC0131832083FB0142815381648124
:102ED0007581FC01428353836483758308950F9346
:102EE00000E020E040E060E084E097E00E94BA1556
:102EF00084EF96E00F910C94B015CF93DF931F925F
:102F0000CDB7DEB76983DC01ED91FC910280F381DE
:102F1000E02D41E050E0BE016F5F7F4F19950F90AB
:102F2000DF91CF910895CF93DF93EC0107C0E88143
:102F3000F9810680F781E02DCE011995E881F981AC
:102F40000480F581E02DCE011995892B81F7DF9161
:102F5000CF91089521E0FC018485843009F420E0BC
:102F6000822F08950F931F93CF93DF931F92CDB7B6
:102F7000DEB78C01DC01ED91FC910480F581E02D40
:102F80001995892B51F0BE016F5F7F4FF801848541
:102F90000E94A521298130E002C02FEF3FEFC90137
:102FA0000F90DF91CF911F910F910895FC018485BF
:102FB0000C946621CF93DF931F92CDB7DEB741E02B
:102FC00050E0BE016F5F7F4FFC0184850E94662147
:102FD000181619061CF4298130E002C02FEF3FEFCC
:102FE000C9010F90DF91CF910895FC016485643091
:102FF00021F08AE297E00C946E2380E090E008953F
:103000000F931F93CF93DF938C01EA01FC0184851A
:10301000843019F481E090E007C00E941321892BCD
:1030200039F481E090E0F80193838283C0E0D0E03E
:10303000CE01DF91CF911F910F910895CF92DF9232
:10304000EF92FF920F931F93CF93DF93CDB7DEB72D
:10305000AF970FB6F894DEBF0FBECDBF7C018B01DA
:103060006A01CE0101960E94B015CE0109960E9418
:10307000A21CCE018A960E94B01564EF76E0CE01C4
:1030800084960E945F17BE016C5D7F4FCE01019652
:103090000E94231DAE01465D5F4FB801CE0101962F
:1030A0000E94881F9C0181309105C9F4D701ED91E0
:1030B000FC910484F585E02D8AE392E09DA38CA326
:1030C0000CA51DA52EA53FA50EA31FA328A739A7B4
:1030D000A601BE016C5D7F4FC70119959C01C90116
:1030E000AF960FB6F894DEBF0FBECDBFDF91CF9184
:1030F0001F910F91FF90EF90DF90CF900895FC010A
:103100001382128248EE53E060E070E044835583FE
:103110006683778380E492E09183808384E0848770
:103120000895FC01262F1382128248EE53E060E0DE
:1031300070E0448355836683778380E492E09183D3
:10314000808324870895FC018485843039F0382FEA
:1031500020E0C9018D5F9B4F0C94CD2280E0089543
:10316000CF93DF93EC018C858430D1F0CE010E94A7
:10317000A318843181F0882371F0883161F08C319B
:1031800061F4E881F9810480F581E02DCE01199583
:1031900021E0892B19F420E001C021E0822F01C039
:1031A00080E0DF91CF910895CF92DF92EF92FF926E
:1031B000CF93DF93EC018C85843091F10E940C2138
:1031C0000E94E3126B017C01CE010E94A3188823A8
:1031D000D1F00E94E3126C197D098E099F09683EA7
:1031E000734081059105A8F00EC08C850E94722065
:1031F000EC85F0E0EE0FFF1FE450F94F11821082D2
:1032000084E08C870DC0CE010E94A318882381F32F
:10321000ECCF61E070E080E090E00E941F13D4CF1B
:10322000DF91CF91FF90EF90DF90CF900895AF9214
:10323000BF92CF92DF92EF92FF920F931F93CF93A3
:10324000DF93EC015B016A018C85843009F04EC08C
:1032500093E0E92E94E0F92E00E010E0C7010E940F
:10326000CD22811102C00C870AC08831E1F38C3174
:10327000D1F30F5F1F4FF3940430110579F78C855C
:103280008430A1F120910F02309110022F5F3F4F47
:1032900009F002C020E034E03093100220930F02C6
:1032A00040910F025091100220E061E00E948020C6
:1032B000B5016E5F7F4FA6018C850E94D62009C0A4
:1032C00061E070E080E090E00E941F13CE010E9458
:1032D000A318811103C084E08C8708C0CE010E942E
:1032E000A318873169F721E030E002C020E030E028
:1032F000C901DF91CF911F910F91FF90EF90DF9067
:10330000CF90BF90AF9008950F9300E020E040E091
:1033100060E08AE097E00E94BA150F910895CF937C
:10332000DF931F92CDB7DEB76983DC01ED91FC918D
:103330000280F381E02D41E050E0BE016F5F7F4FDE
:1033400019950F90DF91CF910895EF92FF920F930F
:103350001F93CF93DF93CDB7DEB72D970FB6F894B9
:10336000DEBF0FBECDBF7C0100E010E0602FCE01BC
:1033700001960E949118CE0101960E94A318811116
:1033800016C0F7014481558120E061E0802F0E9442
:103390008020802F0E94C220F70184819581F8014E
:1033A000EE0FFF1FE450F94F9183808305C00F5F3C
:1033B0001F4F04301105D1F62D960FB6F894DEBFDD
:1033C0000FBECDBFDF91CF911F910F91FF90EF9076
:1033D0000895FC01138212828CE592E09183808330
:1033E000758364830895BF92CF92DF92EF92FF922C
:1033F0000F931F93CF93DF93CDB7DEB72D970FB603
:10340000F894DEBF0FBECDBF8C014CEFC42E46E05A
:10341000D42EB12CE12CF12C6B2DCE0101960E9403
:103420009118D6012D913D916D01F801848195810E
:1034300028173907B1F4CE0101960E94A3188431F0
:1034400069F0CE0101960E94A3188C3151F4CE018F
:1034500001960E94F517892B99F003C0EE24E3949E
:10346000F12CB394F4E0BF12D7CFEF2871F4D80158
:10347000ED91FC910480F581E02DC801199505C0FE
:10348000CE0101960E94D418ECCF2D960FB6F89479
:10349000DEBF0FBECDBFDF91CF911F910F91FF9087
:1034A000EF90DF90CF90BF9008957F928F929F9280
:1034B000AF92BF92CF92DF92EF92FF920F931F9342
:1034C000CF93DF93CDB7DEB72D970FB6F894DEBF5D
:1034D0000FBECDBF6C015B014A010E94F3195CEF86
:1034E000E52E56E0F52E712C00E010E0672DCE01A0
:1034F00001960E949118F701219131917F01F60107
:10350000848195812817390731F4CE0101960E94F4
:10351000A318873129F07394F4E07F12E7CF09C034
:10352000A401B501CE0101960E940018080F191FD1
:10353000F2CFC8012D960FB6F894DEBF0FBECDBFF7
:10354000DF91CF911F910F91FF90EF90DF90CF907F
:10355000BF90AF909F908F907F900895BF92CF9231
:10356000DF92EF92FF920F931F93CF93DF93CDB72C
:10357000DEB72D970FB6F894DEBF0FBECDBF8C011E
:103580006B01CB010E94F3196CEFE62E66E0F62E7C
:10359000B12C6B2DCE0101960E949118F70121915B
:1035A00031917F01F601848195812817390749F50A
:1035B000CE0101960E94A318873161F1CE010196D8
:1035C0000E94A3188C31E9F425C08B819C81F801FD
:1035D000938382834D815E816F8178854483558397
:1035E0006683778349855A856B857C8540875187BB
:1035F0006287738780E492E0918380838D858487DE
:1036000010C0B394F4E0BF12C4CF64E0C8010E94BC
:10361000911807C0CE0101960E94F517892B89F3F6
:10362000D4CFC8012D960FB6F894DEBF0FBECDBF24
:10363000DF91CF911F910F91FF90EF90DF90CF908E
:10364000BF9008950F9300E020E040E060E080E14B
:1036500097E00E94BA150F9108950F9300E020E0C3
:1036600040E060E086E197E00E94BA150F9108956E
:10367000DC01ED91FC91008CF18DE02D19942AE391
:1036800032E0FC0131832083FB0141895289638947
:103690007489FC0142835383648375830895FC011C
:1036A000858996890895FC01818D928D0895CF9327
:1036B000DF931F92CDB7DEB76983DC01ED91FC91FA
:1036C0000280F381E02D41E050E0BE016F5F7F4F4B
:1036D00019950F90DF91CF910895CF93DF93EC016F
:1036E00007C0E881F9810680F781E02DCE011995A8
:1036F000898D9A8D892BA9F7DF91CF910895CF936A
:10370000DF931F92CDB7DEB7FC01218D328D232BC5
:1037100049F0BE016F5F7F4F84850E94A5212981FA
:1037200030E002C02FEF3FEFC9010F90DF91CF9142
:103730000895CF93DF93EC01898D9A8D009719F44A
:103740002FEF3FEF11C04817590708F0AC018C85E7
:103750000E9466219C011816190694F7898D9A8D8E
:10376000821B930B9A8F898FC901DF91CF910895A6
:103770000F931F93CF93DF931F92CDB7DEB78C01CA
:10378000FC01818D928D892B59F041E050E0BE0102
:103790006F5F7F4F84850E946621181619061CF002
:1037A0002FEF3FEF08C0F801818D928D0197928F26
:1037B000818F298130E0C9010F90DF91CF911F9156
:1037C0000F910895CF93DF93EC019A018F89988D23
:1037D000AB01BC018C850E94B3219C018F89988D1F
:1037E000820F931F988F8F8BC901DF91CF9108951E
:1037F000FC0184850C940F22FC01108E178A6E5FE9
:103800007F4F84850C94E921CF93DF93EC018C8565
:10381000843061F00E947220EC85F0E0EE0FFF1F13
:10382000E450F94F1182108284E08C87DF91CF91B0
:1038300008950F931F93CF93DF93CDB7DEB72897EB
:103840000FB6F894DEBF0FBECDBF8C01DC01ED9149
:10385000FC910284F385E02D1995F80164858AE2D4
:1038600097E00E946E23892B29F148E050E0BE01C9
:103870006F5F7F4FD8011C968C910E9466219C013E
:1038800018161906CCF4BE016F5F7F4FC8010F9662
:103890000E94D6159D8180E02E81820F911DF80136
:1038A000968B858B3F8120E08885280F311D328FD4
:1038B000218F02C020E030E0C90128960FB6F894AD
:1038C000DEBF0FBECDBFDF91CF911F910F91089545
:1038D000CF92DF92EF92FF920F931F93CF93DF93DC
:1038E000EC016B018C85843019F593E0E92E94E0AE
:1038F000F92E00E010E0C7010E94CD22811102C024
:103900000C8708C08831E1F30F5F1F4FF394043038
:10391000110589F78C85843059F0DE86CD861A8EA4
:10392000198E20E0A60162E00E94802081E001C0A3
:1039300080E0DF91CF911F910F91FF90EF90DF908A
:10394000CF900895FC011382128248EE53E060E0AC
:1039500070E0448355836683778386E692E09183A3
:10396000808384E08487CF010F960C94B015CF92AA
:10397000DF92EF92FF920F931F93CF93DF93CDB718
:10398000DEB7AF970FB6F894DEBF0FBECDBF7C0198
:103990008B016A01CE0101960E94B015CE010996F5
:1039A0000E94A21CCE018A960E94B01564EF76E0B8
:1039B000CE0184960E945F17BE016C5D7F4FCE01E1
:1039C00001960E94231DAE01465D5F4FB801CE01F6
:1039D00001960E94881F9C0181309105C9F4D7018E
:1039E000ED91FC910088F189E02D8AE392E09DA39E
:1039F0008CA30CA51DA52EA53FA50EA31FA328A72C
:103A000039A7A601BE016C5D7F4FC70119959C01C6
:103A1000C901AF960FB6F894DEBF0FBECDBFDF91E0
:103A2000CF911F910F91FF90EF90DF90CF9008956D
:103A30000F9300E020E040E060E08CE197E00E941E
:103A4000BA150F910895FB014281538164817581FC
:103A5000FC01428353836483758317821682089521
:103A6000CF93FB01DB018D918111FDCF80E090E0D0
:103A700020E030E0CAE01BC08F3F910509F064F5FB
:103A8000DA01A20FB31F12968C932F5F3F4F80E095
:103A900090E00DC0DC01CA9FC001CB9F900D1124A6
:103AA000772767FD709560537109860F971F6191A5
:103AB000662321F02430310594F00EC08F3F91052C
:103AC00009F054F4243031053CF4FA01E20FF31FFD
:103AD000828321E030E006C020E030E003C06E3297
:103AE000C9F6CACFC901CF910895AF92BF92CF92C4
:103AF000DF92EF92FF920F931F93CF93DF9300D04B
:103B0000CDB7DEB77C015B010E94E312F70177833A
:103B100066838701085F1F4FB7016A5F7F4F42E0EE
:103B200050E0C8010E94E21B81E090E09A83898303
:103B300042E050E0BE016F5F7F4FC8010E94E21B70
:103B400080E091E09A83898342E050E0BE016F5F9C
:103B50007F4FC8010E94E21B1A82198242E050E0A6
:103B6000BE016F5F7F4FC8010E94E21B42E050E040
:103B7000BE016F5F7F4FC8010E94E21B42E050E030
:103B8000BE016F5F7F4FC8010E94E21B7501650196
:103B900021C0F6017F018191811107C05701AC1846
:103BA000BD081A141B0424F011C08E3299F7F6CF09
:103BB000AB8241E050E0BE016D5F7F4FC8010E94C3
:103BC000E21BA501B601C8010E94E21B6701FFEFDD
:103BD000CF1ADF0AF70180818111DBCF1B8241E020
:103BE00050E0BE016D5F7F4FC8010E94E21BE12CD7
:103BF000FF24F394FA82E98242E050E0BE016F5F55
:103C00007F4FC8010E94E21BFA82E98242E050E045
:103C1000BE016F5F7F4FC8010E94E21B81E090E010
:103C20000F900F900F90DF91CF911F910F91FF9008
:103C3000EF90DF90CF90BF90AF9008952F923F927A
:103C40004F925F926F927F928F929F92AF92BF92AC
:103C5000CF92DF92EF92FF920F931F93CF93DF9358
:103C6000CDB7DEB763970FB6F894DEBF0FBECDBFFA
:103C70002C014B011A010E94E3126B017C013201FD
:103C800028E0620E711CA12CB12C12C00E94E3121C
:103C90006C197D098E099F0986169706A806B90634
:103CA00008F40DC162E370E080E090E00E941F1311
:103CB000C3010E94191C1816190644F7F201C280AC
:103CC000D380E480F580018D128D238D348DC01654
:103CD000D106E206F30609F0F5C0858D968DC597ED
:103CE00009F0F0C0F5C04CE050E0BE016F5F7F4FBF
:103CF000C3010E94991B8B819C8198278927982753
:103D00009A8B898BF2014681578129813A8142172A
:103D1000530711F497FD06C0C3010E946D1B2CEFE1
:103D20003FEFDCC08F709270892B31F0C3010E948D
:103D30006D1B2BEF3FEFD2C0CF80D884DC24CD2485
:103D4000DC24C114D10471F5C3010E946D1B2AEF5C
:103D50003FEFC4C041E050E0BE01635F7F4FC3014D
:103D60000E94991B8D85811107C08D858111F2CF2D
:103D70000AC0C3010E94B81B8D85982F91509D8762
:103D80008111F7CFF2CFC3010E94B81BC3010E947B
:103D9000B81BC3010E94B81BC3010E94B81B0F5F70
:103DA0001F4F02C000E010E08D819E819827892777
:103DB00098270817190770F2E12CF12C41E050E028
:103DC000BE016D5E7F4FC3010E94991B8B89982FA6
:103DD000907C69F4811104C00EC0C3010E94B81B1D
:103DE0008B89982F91509B8B8111F7CF04C0C30111
:103DF0000E94B81B1B8A8B898111E0CF42E050E002
:103E0000BE01615F7F4FC3010E94991B42E050E0F9
:103E1000BE01635F7F4FC3010E94991BC3010E94D3
:103E2000B81BC3010E94B81BC3010E94B81BC30189
:103E30000E94B81B42E050E0BE016F5E7F4FC3019D
:103E40000E94991B8F8598898115914009F58D8570
:103E50009E8581159140E1F489899A898115944064
:103E600031F0C3010E946D1B27EF3FEF37C0B10156
:103E70006E5F7F4F44E050E0C3010E94991B21E038
:103E800030E02CC0C3010E94B81B0F5F1F4F02C05F
:103E900000E010E089899A899827892798270817D0
:103EA000190780F3FFEFEF1AFF0AEC14FD0409F085
:103EB00085CFC3010E946D1B26EF3FEF0FC02FEF90
:103EC0003FEF0CC02EEF3FEF09C02DEF3FEF06C0D4
:103ED000C3010E94531B0C97C4F305CFC90163961D
:103EE0000FB6F894DEBF0FBECDBFDF91CF911F910B
:103EF0000F91FF90EF90DF90CF90BF90AF909F9089
:103F00008F907F906F905F904F903F902F9008958B
:103F10006F927F928F929F92AF92BF92CF92DF92D9
:103F2000EF92FF920F931F93CF93DF9300D000D0B7
:103F3000CDB7DEB75C014B013A010E94301D892BE1
:103F400009F051C0F501C280D380E480F580009172
:103F50002407109125072091260730912707C016C6
:103F6000D106E206F30609F441C00E94E31275018E
:103F7000F8E0EF0EF11C6F707727882799277C5F98
:103F8000C7010E94681C8130A1F58AE392E09A8300
:103F90008983F50102811381248135810B831C8380
:103FA0002D833E8345E350E0BE016F5F7F4FC70125
:103FB0000E94FC1B892B19F400E010E010C0B40132
:103FC000C5010E94751D892BB9F3C7010E94F81B1A
:103FD000892B91F4F1CF0F3FFFEF1F0781F0C7014D
:103FE0000E94041C18C001E010E015C00EEF1FEF86
:103FF00012C000E010E00FC093E0C92ED12CA30145
:1040000068E873E1C5010E941E1E8C0121E0C21AFE
:10401000D10829F3E0CFC80126960FB6F894DEBF89
:104020000FBECDBFDF91CF911F910F91FF90EF9009
:10403000DF90CF90BF90AF909F908F907F906F90C8
:1040400008950F9300E020E040E060E082E297E016
:104050000E94BA150F910895382F20E044E050E0F7
:10406000C901845F9B4F0C949E2290E00496982F88
:104070008827860F971F0C94CD2262E070E00C9485
:1040800035209B0190E00496982F8827642F820F9B
:10409000931F0C943D22462F62E070E00C94412067
:1040A000CF93DF93C82FD62F472F60E170E00E9497
:1040B00041204D2F61E170E08C2FDF91CF910C9466
:1040C0004120CF93DF93C82FD62F472F64E070E0B5
:1040D0000E9441204D2F65E070E08C2FDF91CF9141
:1040E0000C944120CF93C82F40E150E0682F8AE222
:1040F00097E00E9476246FEF8C2FCF910C944B2089
:10410000EF92FF921F93CF93DF931F921F92CDB731
:10411000DEB7182F7A01862F8150853050F5812F18
:104120002A8369830E9472202A816981422F462B4B
:1041300060E070E0812F0E944120E114F10411F051
:10414000B7010BC02091280730912907B9016F5F93
:104150007F4F7093290760932807812F0E94612069
:1041600041E050E0612F8AE297E00E94762481E0EE
:1041700001C080E00F900F90DF91CF911F91FF90D1
:10418000EF900895CF93C82F63E070E00E94352030
:10419000833149F442E050E06C2F8AE297E00E94BC
:1041A000762481E001C080E0CF9108951F93CF93E2
:1041B000DF93182FFB01EA0180818F3F51F4818149
:1041C0008F3F91F482818F3F79F483818F3F61F437
:1041D0001EC0811109C08181811106C082818111B7
:1041E00003C08381882399F0209789F0BF01812F34
:1041F0000E942C20BE01812F0E94502044E050E0FC
:10420000612F8AE297E00E94762481E001C080E07D
:10421000DF91CF911F91089548E050E0682F8AE226
:1042200097E00C947624DF92EF92FF920F931F9306
:10423000CF93DF93D82E8B01EA01413088E05807F5
:1042400010F0C0E0D8E06D2D8AE297E00E949E2336
:104250007C0163E070E08D2D0E943520873111F0E4
:104260008C3121F4EC16FD0670F302C0C0E0D0E002
:104270009E01A8016D2D8AE297E00E944F2340E243
:1042800050E06D2D8AE297E00E9476240DC063E035
:1042900070E08D2D0E943520811106C08D2D0E9469
:1042A0007220C0E0D0E009C08D2D0E943D2084FF27
:1042B000EECF60E18D2D0E944B20CE01DF91CF919A
:1042C0001F910F91FF90EF90DF900895DF92EF9292
:1042D000FF920F931F93CF93DF93D82E7B018A0118
:1042E000682F8AE297E00E946E23EC01009771F438
:1042F00063E070E08D2D0E9435208431E9F0882341
:10430000D9F08C31C9F0CFEFDFEF16C008171907CD
:104310000CF4E8011C161D067CF400E09E01A701C8
:104320006D2D8AE297E00E94262440E450E06D2D36
:104330008AE297E00E947624CE01DF91CF911F910F
:104340000F91FF90EF90DF9008950F93AB0101E084
:1043500021E030E0682F8AE297E00E94262481E085
:1043600090E00F910895AF92BF92CF92DF92EF92BB
:10437000FF920F931F93CF93DF93B82E7B016A01B7
:10438000E901682F8AE297E00E949E238C179D071F
:1043900040F46B2D8AE297E00E949E23A82EC92F3D
:1043A00002C0AC2ECD2F0A2D1C2F9601A7016B2D1C
:1043B0008AE297E00E94ED228A2D9C2FDF91CF9117
:1043C0001F910F91FF90EF90DF90CF90BF90AF9033
:1043D00008951F93CF93DF93182FFB01EA0180818B
:1043E000811109C08181811106C08281811103C0C0
:1043F0008381882369F0209759F0BF01812F0E94A3
:104400002C20BE01812F0E94502021E030E002C00C
:1044100020E030E0C901DF91CF911F910895CF9343
:10442000C82F40E250E0682F8AE297E00E9476248D
:104430000CC08C2F0E943D2083FF07C068E18C2FA9
:104440000E944B2020E030E00BC08C2F0E943D20CA
:1044500084FFEFCF60E18C2F0E944B2021E030E001
:10446000C901CF9108958EBD0DB407FEFDCF8EB565
:1044700008952C9808952C9A08951F93CF93DF9355
:104480001F921F92CDB7DEB7182F6A8399830E94BF
:10449000392280EF0E9433229981892F0E94332292
:1044A000812F0E9433226A81862F0E9433220E942C
:1044B0003B2281E00F900F90DF91CF911F910895E3
:1044C000CF93DF93EC016CE271E080E090E00E941A
:1044D0001F130E94AE2F249A60E880E090E00E94B3
:1044E0003D2265E58BE190E00E943D2265E58AE191
:1044F00090E00E943D2280E090E49983888380E0F0
:1045000090E69987888780E098E49B838A8380E09F
:1045100098E69B878A8780E090E59D838C8380E086
:1045200090E79D878C8780E098E59F838E8380E06D
:1045300098E79F878E87DF91CF910895CF92DF9282
:10454000EF92FF920F931F93CF93DF93EC017A01C9
:104550008B016A01C80ED91E13C00E94392280EF58
:104560000E9433228D2F0E9433228C2F0E943322EF
:104570002196F80181918F010E9433220E943B22F3
:10458000CC15DD0551F7C701DF91CF911F910F9138
:10459000FF90EF90DF90CF9008951F93CF93DF931C
:1045A0001F92CDB7DEB7182F99830E9439228FE072
:1045B0000E9433229981892F0E943322812F0E94E9
:1045C000332280E00E94332289830E943B2289812A
:1045D0000F90DF91CF911F9108958F929F92AF928C
:1045E000BF92CF92DF92EF92FF920F931F93CF93E0
:1045F000DF937C01962EEA01590164E270E0892D77
:104600000E943520882E65E270E0892D0E943520B9
:10461000D82CC12CC82ACC0EDD1E9601377062E062
:10462000969EE00CF11C1124F70180819181820F8C
:10463000931FA901400F511F4130584090F0C0E036
:10464000D8E0C21BD30BAE01B5010E949E22A80187
:104650004C1B5D0BB5016C0F7D1FF70180819181B3
:1046600002C0A801B5010E949E220C0D1D1D412F04
:1046700064E270E0892D0E944120402F65E270E0E5
:10468000892DDF91CF911F910F91FF90EF90DF90D7
:10469000CF90BF90AF909F908F900C9441200F933C
:1046A0001F9389019A0140E050E00E94ED221F9182
:1046B0000F910895CF93DF93C82F66E270E00E94B8
:1046C0003520D82F67E270E08C2F0E9435203D2FD7
:1046D00020E0282BC901DF91CF910895FF920F931D
:1046E0001F93CF93DF93F62EC0E0D0E08F2D0E9472
:1046F0005A238C01009721F08F2D0E945A23EC0140
:10470000C017D10799F7CE01DF91CF911F910F917B
:10471000FF900895CF93DF93C82F60E270E00E946E
:104720003520D82F61E270E08C2F0E9435203D2F7C
:1047300020E0282BC901DF91CF910895FF920F93BC
:104740001F93CF93DF93F62EC0E0D0E08F2D0E9411
:104750008A238C01009721F08F2D0E948A23EC017F
:10476000C017D10799F7CE01DF91CF911F910F911B
:10477000FF900895CF92DF92EF92FF920F931F93D5
:10478000CF93DF93EC017A018B016A01C80ED91E29
:1047900014C00E9439228FE00E9433228D2F0E9484
:1047A00033228C2F0E943322219680E00E943322F4
:1047B000F80181938F010E943B22CC15DD0549F75A
:1047C000C701DF91CF911F910F91FF90EF90DF9084
:1047D000CF900895CF92DF92EF92FF920F931F93A5
:1047E000CF93DF93690157707C0122E0629FE00C58
:1047F000F11C112488E0E80EF11CF7018081918101
:10480000840F951F9801240F351F2130384090F0F8
:10481000C0E0D8E0C41BD50BAE01B6010E94BA239C
:10482000A8014C1B5D0BB6016C0F7D1FF701808149
:10483000918102C0A801B601DF91CF911F910F9124
:10484000FF90EF90DF90CF900C94BA238F929F92BD
:10485000AF92BF92CF92DF92EF92FF920F931F938E
:10486000CF93DF936C01962E5A01E901802E68E206
:1048700070E0892D0E943520F82E69E270E0892DC4
:104880000E943520FF2DE0E07F01E82A8E0195018E
:10489000A701692DC6010E94EA2381101AC0CE0D1E
:1048A000DF1D4D2F68E270E0892D0E9441204C2FC2
:1048B00069E270E0892DDF91CF911F910F91FF90F8
:1048C000EF90DF90CF90BF90AF909F908F900C941F
:1048D0004120DF91CF911F910F91FF90EF90DF90DA
:1048E000CF90BF90AF909F908F900895CF93C62F99
:1048F00061E070E08C2F0E94412061E070E08C2F1D
:104900000E9435208111F9CFCF91089529E1829F2E
:10491000C00111248B5E9F4F0C94113829E1829FB6
:10492000C00111248B5E9F4F0E94ED370895E091E6
:104930009F02F091A00292E0899FE00DF11D1124E9
:104940002081318185E0689F200D311D1124C9012E
:10495000089590919E02482F50E0891748F489E20B
:10496000849F9001859F300D11242C593F4F0AC020
:10497000491B510989E1849F9001859F300D1124C5
:1049800020503040C90108950F931F93CF93DF93B8
:104990008B016531710540F550913A0740919E02B7
:1049A000252F30E0541748F449E2429FE001439F2D
:1049B000D00D1124CC59DF4F0AC0241B310949E125
:1049C000429FE001439FD00D1124C050D040A80168
:1049D000BE010E94F93760E0CE01800F911F0E9456
:1049E000033820E030E002C021E739E0C901DF915F
:1049F000CF911F910F9108951F93CF93DF93C82FED
:104A0000D5E019E20FC020913A07129FC00111248E
:104A1000DC9F800D911D112460E087589F4F0E94FC
:104A20000338CF5FC43078F30E94D50780E090E070
:104A3000DF91CF911F910895EF92FF920F931F93F3
:104A4000CF93DF93EC018B01F42E23E0241748F180
:104A5000E0903A0780919E02E81630F5AB0162E8DB
:104A600079E0CE010E947733892B51F0A8016FE8DD
:104A700079E0CE010E947733892BC9F462E001C04E
:104A800061E029E2E29EC001112425E0F29E800D42
:104A9000911D112487589F4F0E94033820E030E079
:104AA00008C02CE939E005C02CEA39E002C020EC4E
:104AB00039E0C901DF91CF911F910F91FF90EF90E5
:104AC0000895CF92DF92EF92FF921F93CF93DF93DF
:104AD000142F443008F039C030913A0720919E02DB
:104AE0003217B0F50E9440336B017C0180913A0788
:104AF00020E7829FC0011124FC01ED5DF94F249154
:104B0000FC01E95DF94F85919491C82FD92F21308F
:104B100019F48FEF93E002C081E090E0FE01199557
:104B20009B01AC01C701B6010E94683518163CF123
:104B300080E090E0FE0119959B01AC01C701B60130
:104B40000E94813487FD1BC006C02CE939E019C0E2
:104B50002CEA39E016C080913A07F9E28F9FC00134
:104B6000112425E0129F800D911D1124B701A6018B
:104B700086589F4F0E94113820E030E002C029ED96
:104B800039E0C901DF91CF911F91FF90EF90DF9045
:104B9000CF9008950F931F93CF93DF93EC018B0178
:104BA0004FEE59E060E070E0888199810E94B30F78
:104BB000A801BC01888199810E94B30F49EF59E097
:104BC000BC01888199810E94B30F4CEF59E0BC0170
:104BD000888199810E94B30F4BE15AE0BC01888122
:104BE0009981DF91CF911F910F910C94B30FEF92A8
:104BF000FF920F931F93CF93DF93EC018A0179010A
:104C000040E25AE00E94B30FA801BC01CE010E940D
:104C1000B30F44E55AE0BC01CE010E94B30FA701D7
:104C2000BC01CE010E94B30F42E65AE0BC01CE01A6
:104C3000DF91CF911F910F91FF90EF900C94B30FE4
:104C40002F923F924F925F926F927F928F929F929C
:104C5000AF92BF92CF92DF92EF92FF920F931F938A
:104C6000CF93DF9300D01F921F92CDB7DEB79A8308
:104C700089833B01812C912CCB0104969C838B83EF
:104C8000962F9C5F9D838EC0F801E959F54FE59002
:104C9000F490C7010E946E336C0149805A8044E051
:104CA00050E0B501C201860D971D0E947733892B14
:104CB00009F075C05701A601B7018B819C81840D55
:104CC000951D0E947733892B09F069C0F801E759D7
:104CD000F54F859194917C01F6013197EA0DFB1D0A
:104CE000E491E03229F430923C0720923B076DC0FA
:104CF0008B819C818C0D9D1D840D951D0E944433DC
:104D0000B82E0E948B278F3F19F080933D071BC060
:104D10008B2D0E94A3278F3F89F46DEB7AE0CE01A3
:104D200001960E94CA252FED3AE04DEC5AE0BC01F5
:104D300089819A810E94F7259C0149C090919E0229
:104D4000980F90933D07ED81CE0E89819A8101C025
:104D5000C3945C01AC0CB11CF5012081322F30539F
:104D60003A30B0F3E114F10449F4203209F410C0F0
:104D70002F3221F4F5018181803251F0C7010E9468
:104D80006E33AC01B701C5010E947733892B39F42A
:104D90000B59154F10933C0700933B0716C0FFEFCC
:104DA0008F1A9F0A840183E0000F111F8A95E1F793
:104DB00095E6292E9AE0392E200E311EF1018591BB
:104DC00094915C01009709F05FCF20E030E0C901C9
:104DD0000F900F900F900F900F90DF91CF911F9138
:104DE0000F91FF90EF90DF90CF90BF90AF909F908A
:104DF0008F907F906F905F904F903F902F9008958D
:104E0000CF92DF92EF92FF920F931F93CF93DF9396
:104E100000D01F92CDB7DEB79C838B836B017A01E4
:104E20009A838983473E23E0520750F4A701B601D5
:104E30008B819C810E9420269C010097A9F05DC077
:104E400060E37BE0CE0101960E94CA252DE53BE0A0
:104E50004DE45BE0BC0189819A810E94F7259C01A9
:104E6000009709F04AC0E2CF80913B0790913C0740
:104E7000009749F463EF7AE0CE0103960E94CA25B9
:104E800021E03BE025C0FC01369625913491890153
:104E9000FC01259134918B819C812E5E3A4031F446
:104EA0002BE337E0A70160E070E024C06BE17AE01B
:104EB0008C0D9D1D0E946B0E8F3FFFEF9F0781F4AD
:104EC0006DEB7AE0CE0103960E94CA252AE13BE011
:104ED0004DEC5AE0BC018B819C810E94F7250CC0EF
:104EE000B6016C5F7F4F680F791F2BE337E0A70196
:104EF0008B819C81F80119959C01C9010F900F903D
:104F00000F900F90DF91CF911F910F91FF90EF9035
:104F1000DF90CF90089590E040E7282F30E009C05F
:104F2000FF27E7FDF095E217F30711F4892F0895A5
:104F30009F5F499FF0011124EE5DF94FE491EF3F2F
:104F400079F78FEF089590E047E7282F30E009C008
:104F5000FF27E7FDF095E217F30711F4892F089575
:104F60009F5F499FF0011124E153FC4FE491EF3F13
:104F700079F78FEF08950F931F93CF93DF931F92CD
:104F80001F92CDB7DEB79A8389838901F901928197
:104F900080919E02981748F468E97BE0CE01019663
:104FA0000E94CA2528EB3BE019C089819A81860FAF
:104FB000971F0E944033AB01BC01F80182819091A0
:104FC0009E02891B0E94E7098C01009779F068E92D
:104FD0007BE0CE0101960E94CA25980148EA5BE079
:104FE000BC0189819A810E94F72506C067ED7BE0AC
:104FF000CE0101960E94CA250F900F90DF91CF91AC
:105000001F910F910895EF92FF920F931F93CF93EB
:10501000DF931F921F92CDB7DEB79A838983790100
:1050200067ED7BE0CE0101960E94CA258C01F70155
:1050300082810E94690A9B01AC01B80189819A8131
:105040000E94180F0F900F90DF91CF911F910F9139
:10505000FF90EF9008950F931F93CF93DF931F92CC
:105060001F92CDB7DEB79A838983AB01F901228104
:1050700020933A076EED7BE0840F951F0E941D2E52
:105080008C01009779F068E97BE0CE0101960E94DF
:10509000CA25980148EA5BE0BC0189819A810E9497
:1050A000F72506C067ED7BE0CE0101960E94CA2578
:1050B0000F900F90DF91CF911F910F910895BF92A4
:1050C000CF92DF92EF92FF920F931F93CF93DF93D4
:1050D0001F921F92CDB7DEB79A838983790167ED5E
:1050E0007BE0CE0101960E94CA2546EE5BE0BC0142
:1050F00089819A810E94B30F8C01D70112968C91FD
:105100000E94A924AC01B80189819A810E94C50F2F
:1051100042E2BC0189819A810E94E30EF70132814B
:1051200020919E02321708F054C040EF5BE0BC01B2
:1051300089819A810E94B30F8C01B12C6B2DD7010C
:1051400012968C910E9497246C01FC018081882327
:10515000B1F1BB2039F04CE2B80189819A810E94FB
:10516000E30E8C014EEF5BE0B80189819A810E94C9
:10517000B30FD601EC91F0E0EE0FFF1FEC5FFD4F97
:1051800040815181BC0189819A810E94B30F43E122
:105190005CE0BC0189819A810E94B30FF6012181F4
:1051A000328143815481BC0189819A810E94180F08
:1051B0004DE7BC0189819A810E94E30E8C01B39472
:1051C000F4E0BF12BBCF4DE5B80189819A810E94FE
:1051D000E30E4DE7BC0189819A810E94E30E0F9096
:1051E0000F90DF91CF911F910F91FF90EF90DF9083
:1051F000CF90BF900895BF92CF92DF92EF92FF922F
:105200000F931F93CF93DF93CDB7DEB72A970FB6D7
:10521000F894DEBF0FBECDBF9A878987890167EDFD
:105220007BE0CE0109960E94CA2544E25CE0BC0105
:1052300089859A850E94B30FD80112963C912091DE
:105240009E02321718F445E45CE002C04BE45CE0D7
:10525000BC0189859A850E94B30F43E35CE0BC01E1
:1052600089859A850E94B30FF801528140919E0270
:10527000252F30E0541748F460E7629FA001639F38
:10528000500D1124455D594F0AC0241B310967E7B1
:10529000629FA001639F500D112441525C4FBC01DD
:1052A00089859A850E94B30F42E55CE0BC0189853F
:1052B0009A850E94B30FD80112965C9140919E028C
:1052C000252F30E0541748F440E7429FF001439FF8
:1052D000F00D1124EE5DF94F0AC0241B310947E798
:1052E000429FF001439FF00D1124E153FC4F449184
:1052F00050E0BC0189859A850E94EB0EF80152812D
:1053000040919E02252F30E0541748F440E7429F19
:10531000F001439FF00D1124ED5DF94F0AC0241BED
:10532000310947E7429FF001439FF00D1124E053FC
:10533000FC4FB4904AE55CE0BC0189859A850E94E7
:10534000B30FAB2DB0E0AA0FBB1FA85FBD4F4D91AF
:105350005C91BC0189859A850E94B30F6C01D801CC
:1053600012963C9120919E02832F90E0321708F014
:105370004FC020E7289FF001299FF00D1124E95D1F
:10538000F94F859194917C0144E65CE0B6018985F2
:105390009A850E94B30F6C0180E090E0F7011995A7
:1053A0009B01AC01B60189859A850E94180F42E7DE
:1053B0005CE0BC0189859A850E94B30F6C01F1E025
:1053C000BF1203C08FEF93E002C081E090E0F701CD
:1053D00019959B01AC01B60189859A850E94180F29
:1053E0004FE75CE0BC0189859A850E94B30FD80124
:1053F0001296EC91B0E7EB9FF0011124EC5DF94FB0
:10540000449150E0BC0189859A850E94EB0E46C00C
:10541000821B910937E7B32EB89EB001B99E700D7B
:1054200011246F527C4F44E050E0CE0105960E945B
:10543000653344E65CE0B60189859A850E94B30F26
:105440002D813E814F815885BC0189859A850E94B6
:10545000180F7C01F801428150E080919E02481BA8
:105460005109B49EB001B59E700D11246B527C4F52
:1054700044E050E0CE0101960E94653342E75CE0D3
:10548000B70189859A850E94B30F29813A814B81A2
:105490005C81BC0189859A850E94180F4AE85CE00E
:1054A000BC0189859A850E94B30F7C01D8011296B0
:1054B0008C910E94690A9B01AC01B70189859A858C
:1054C0000E94180F4DE7BC0189859A850E94E30E62
:1054D0002A960FB6F894DEBF0FBECDBFDF91CF91F5
:1054E0001F910F91FF90EF90DF90CF90BF900895A4
:1054F000FF920F931F93CF93DF931F921F92CDB70D
:10550000DEB79A8389836EEE7CE0CE0101960E941D
:10551000CA2545EF5CE0BC0189819A810E94B30FE6
:1055200048E15DE0BC0189819A810E94B30F4CE1A2
:105530005DE0BC0189819A810E94B30F4BE25DE07E
:10554000BC0189819A810E94B30F4DE65DE0BC01E8
:1055500089819A810E94B30F48EC58E0BC0189818F
:105560009A810E94B30F4FE75DE0BC0189819A8167
:105570000E94B30F8C010E942F2EAC01B8018981CB
:105580009A810E94EB0E4FE85DE0BC0189819A810F
:105590000E94B30FBC0110E000E715C0112331F0E9
:1055A0004CE289819A810E94E30EBC01019FF001C7
:1055B0001124EE5DF94F449150E089819A810E9457
:1055C000EB0EBC011F5F80919E02181738F300E0BC
:1055D00087E7F82E15C0111102C0002321F04CE21C
:1055E0000E94E30EBC01F09EF0011124E153FC4F38
:1055F000449150E089819A810E94EB0EBC010F5FBB
:1056000020919D0289819A81021728F34DE50E941D
:10561000E30E4CE95DE0BC0189819A810E94B30FE1
:1056200021E040E952E0BC0189819A810E94B30ED9
:105630004AE3BC0189819A810E94E30E21E041E99D
:1056400052E0BC0189819A810E94B30E4AE3BC01F9
:1056500089819A810E94E30E21E042E952E0BC0177
:1056600089819A810E94B30E4AE3BC0189819A81A3
:105670000E94E30E21E043E952E0BC0189819A8156
:105680000E94B30E4AE3BC0189819A810E94E30E15
:1056900021E044E952E0BC0189819A810E94B30E65
:1056A0004AE3BC0189819A810E94E30E21E045E929
:1056B00052E0BC0189819A810E94B30E45EA5DE007
:1056C000BC0189819A810E94B30F0F900F90DF91E6
:1056D000CF911F910F91FF9008950F931F93CF9338
:1056E000DF931F921F92CDB7DEB79A8389836EEE48
:1056F0007CE0CE0101960E94CA2548EA5DE0BC012B
:1057000089819A810E94B30F8C010E94EB08AC0141
:10571000B80189819A810E94C50F47EB5DE0BC0109
:1057200089819A810E94B30F4091960250E0BC019A
:1057300089819A810E94EB0E4EE2BC0189819A8197
:105740000E94E30E4091970250E0BC0189819A814A
:105750000E94EB0E4EE2BC0189819A810E94E30E09
:105760004091980250E0BC0189819A810E94EB0E21
:105770004EE2BC0189819A810E94E30E4091990218
:1057800050E0BC0189819A810E94EB0E40EC5DE003
:10579000BC0189819A810E94B30F8C010E94E808A4
:1057A000AC01B80189819A810E94C50F4BEC5DE084
:1057B000BC0189819A810E94B30F40918E02509161
:1057C0008F02BC0189819A810E94EB0E4DE7BC01DA
:1057D00089819A810E94E30E0F900F90DF91CF9103
:1057E0001F910F9108950F931F93CF93DF931F92F3
:1057F0001F92CDB7DEB79A8389839B0165ED7DE06B
:10580000820F931F0E941D2E8C01009779F06DED81
:105810007DE0CE0101960E94CA2598014DEE5DE023
:10582000BC0189819A810E94F72506C06EEE7CE05A
:10583000CE0101960E94CA250F900F90DF91CF9163
:105840001F910F910895CF93DF931F921F92CDB7B1
:10585000DEB79A83898381E080939C026EEE7CE0C0
:10586000CE0101960E94CA250F900F90DF91CF9133
:1058700008951F93CF93DF9300D0CDB7DEB79A83FF
:1058800089836EEE7CE0CE0101960E94CA25182F16
:1058900081E09B830E94400C812F9B810F900F9091
:1058A0000F90DF91CF911F910895AB0160E070E000
:1058B000FC01808191810C94B30FFC0109C02191FE
:1058C000322F3950323020F02D3011F0203219F4BF
:1058D000CF013097A1F70895CF92DF92EF92FF9218
:1058E0000F931F93CF93DF9300D01F921F92CDB7DA
:1058F000DEB76C01FC01808191819A8389834D839D
:105900006B837C830E945D2C9A838983FC01508188
:105910004D816B817C815B3581F4CE0101960E94C3
:105920000D2D9C01009709F069C089819A81F601CB
:105930009183808320E030E061C05B3759F46C5F75
:105940007F4FFB0185919491BC01CE0101960E948D
:10595000792D50C06115710539F06E5F7F4FFB01E5
:1059600025913491890102C000E010E0523249F5DE
:1059700001969A83898362E270E04D830E94E20D72
:105980007C014D810115110531F0BC0189819A819D
:10599000F801199502C080E090E0FFEFEF1AFF0ACE
:1059A00023C0522F59505230A0F02D3091F02032A8
:1059B00081F02D3571F02D3761F02C3251F03F5FC1
:1059C00001C030E0FC01E30FF11D20812111E9CF7E
:1059D0003FEFE32EF12C0115110521F0B701F8017D
:1059E000199502C080E090E049815A814E0D5F1DFB
:1059F0005A834983009709F498CF9C01C9010F90FD
:105A00000F900F900F900F90DF91CF911F910F91FA
:105A1000FF90EF90DF90CF900895BF92CF92DF92EA
:105A2000EF92FF920F931F93CF93DF931F921F92DA
:105A3000CDB7DEB76C017B01FC01808191819A8337
:105A40008983FB013696859194918C0161157105CE
:105A500011F00097D1F1B12C89819A8101960E94B1
:105A60005D2C9A838983FC0180818D35A1F04B2DBB
:105A7000B701CE0101960E946C2C9C01009761F544
:105A800089819A810E945D2C9A838983B394FC0159
:105A900080818C3209F389819A810E945D2C9A83DE
:105AA0008983FC0180818D3599F48B2DF80119953E
:105AB000009789F489819A8101960E945D2CF601F4
:105AC0009183808320E030E007C02CE33EE004C0F7
:105AD0002DE43EE001C09C01C9010F900F90DF91C1
